:020000002A28AC
:10000800FF00030E8301D4000A08D5008A018B1C67
:1000180010288B100130860655088A00540E83007C
:06002800FF0E7F0E09002F
:0E002E008312031353088A0052088200080050
:10003C0017208A110A128000840AD20A0319D30AE3
:08004C00F003031D1E2808004B
:10005400D2210730831603139F00850105168701FB
:1000640083124E08870083168801CC3083128800DF
:100074000330831686008B170B1683120618042987
:10008400CC308800881DA5281730D0000030D1005E
:1000940080305106F00080307002031D5328003078
:1000A4005002031CA4280618A4288030F0008030D5
:1000B40051067002031D60285008033C031865288C
:1000C4000130F3006628F30173186A2808116B28BD
:1000D40008158030F000803051067002031D74282A
:1000E4005008033C031C792888148811081650080A
:1000F400F0005108F100F00DF10D70107008203E71
:1001040084000008870000305106031D8B2800304E
:100114005006031D912888100812081488160B3005
:10012400FB002630FC005D30FD00FD0B9728FC0B26
:100134009728FB0B9728000000000130D002031C15
:10014400D1034A2803291730D0000030D100803071
:100154005106F00080307002031DB22800305002B6
:10016400031C0329061803298030F000803051064F
:100174007002031DBF285008033C0318C428013033
:10018400F400C528F4017418C9288812CA288816EE
:100194008030F000803051067002031DD3285008CF
:1001A400033C031CD8280816081088145008F000D3
:1001B4005108F100F00DF10D70107008203E84001C
:1001C4000008870000305106031DEA28003050065D
:1001D400031DF02808128810081588150B30FB0041
:1001E4002630FC005D30FD00FD0BF628FC0BF628E4
:1001F400FB0BF628000000000130D002031CD103E1
:10020400A9289929881D50290330D0000030D10035
:100214008030F000803051067002031D132950080D
:10022400003C03183829061C382988140811500882
:10023400F0005108F100F00DF10D70107008203E2F
:100244008400000887000B30FB002630FC005D3082
:10025400FD00FD0B2B29FC0B2B29FB0B2B2900008C
:1002640000000130D002031CD1030A29061C4F29C7
:1002740086184F2908148810081188110812881646
:10028400200887008230FC00DD30FD00FD0B48298A
:10029400FC0B482900000000382999290330D000BC
:1002A4000030D1008030F000803051067002031D10
:1002B4005D295008003C03188229061C822908166F
:1002C40088125008F0005108F100F00DF10D701083
:1002D4007008203E8400000887000B30FB002630A5
:1002E400FC005D30FD00FD0B7529FC0B7529FB0B33
:1002F4007529000000000130D002031CD1035429E9
:10030400061C99298618992908108810081588153B
:1003140008128812200887008230FC00DD30FD00BE
:10032400FD0B9229FC0B92290000000082293F2832
:020334009A2904
:1003A40020308400323083120313F000A030D200D6
:0803B4000130D3001E200800F7
:100340000034003401340034023400340334003407
:1003500004340034053400340634003407340034E7
:1003600008340034093400341034003411340034BB
:10037000123400341334003414340034153400348F
:10038000163400341734003418340034193400346F
:100390002034003421340034223400342334003437
:0403A00000340034F1
:02400E004A2F37
:00000001FF
